:020000040000FA
:0400000095EF00F088
:100008004882FACF32F0FBCF33F0D9CF34F0DACFD1
:1000180035F0F3CF36F0F4CF37F0F6CF38F0F7CF2E
:1000280039F0F8CF3AF0F5CF3BF00E01BDAB1FEF3A
:1000380000F021EF00F02CEF00F0C5AB26EF00F048
:1000480028EF00F02CEF00F0EEEC18F07FEF00F056
:10005800BDA931EF00F033EF00F03EEF00F0C5A985
:1000680038EF00F03AEF00F03EEF00F02EEC1AF017
:100078007FEF00F0F2AC43EF00F045EF00F07FEFC8
:1000880000F0C0A74AEF00F04CEF00F062EF00F07C
:10009800C8A751EF00F053EF00F062EF00F002D86C
:1000A80060EF00F00500FA6E0001C451FD6EC55105
:1000B800FE6EFF6AFA5012007FEF00F0C0A567EFEE
:1000C80000F069EF00F07FEF00F0C8A56EEF00F0D8
:1000D80070EF00F07FEF00F002D87DEF00F0050030
:1000E800FA6E0001C251FD6EC351FE6EFF6AFA50EE
:1000F80012007FEF00F03BC0F5FF3AC0F8FF39C0AF
:10010800F7FF38C0F6FF37C0F4FF36C0F3FF35C03D
:10011800DAFF34C0D9FF33C0FBFF32C0FAFF489280
:0601280011006CEF17F05E
:100F000000303454333A336822F6231A34222772DD
:100F10003560354E353C352A35183506356E338407
:100F20002B204B6720202020202020202020202044
:100F300020004C696D69746520496E666572696F41
:100F40007220004C696D6974652053757065726913
:100F50006F72200020202020202020202020202010
:100F600020202020005065736F3A2000204B67201E
:100F7000002E0000000E0001C66FC60E436E000E6C
:100F8000446E010E456E48EC17F0520E476E2B0E64
:100F9000466E000EE82EFED7462EFCD7472EFAD717
:100FA00000D0300E0001C66F340EC76F300EC86F10
:100FB000C60E436E000E446E010E456E48EC17F0EF
:100FC000C70E436E000E446E010E456E48EC17F0DE
:100FD000C80E436E000E446E010E456E48EC17F0CD
:100FE000680E466EE40EE82EFED7462EFCD700D0E3
:100FF000C60E436E000E446E010E456E48EC17F0AF
:10100000C70E436E000E446E010E456E48EC17F09D
:10101000C80E436E000E446E010E456E48EC17F08C
:10102000680E466EE40EE82EFED7462EFCD700D0A2
:10103000C60E436E000E446E010E456E48EC17F06E
:10104000C70E436E000E446E010E456E48EC17F05D
:10105000C80E436E000E446E010E456E48EC17F04C
:10106000200E0001C66F240EC76F200EC86FC60E7B
:10107000436E000E446E010E456E48EC17F0C70E2D
:10108000436E000E446E010E456E48EC17F0C80E1C
:10109000436E000E446E010E456E48EC17F0C60E0E
:1010A000436E000E446E010E456E48EC17F0C70EFD
:1010B000436E000E446E010E456E48EC17F0C80EEC
:1010C000436E000E446E010E456E48EC17F0800E24
:1010D0000001C66F840EC76F800EC86FC60E436EC8
:1010E000000E446E010E456E48EC17F0C70E436EBD
:1010F000000E446E010E456E48EC17F0C80E436EAC
:10110000000E446E010E456E48EC17F0000E000113
:10111000C66F040EC76F000EC86FC60E436E000E7A
:10112000446E010E456E48EC17F0C70E436E000E7C
:10113000446E010E456E48EC17F0C80E436E000E6B
:10114000446E010E456E48EC17F0C00E0001C66FEC
:10115000C40EC76FC00EC86FC60E436E000E446E3D
:10116000010E456E48EC17F0C70E436E000E446E3C
:10117000010E456E48EC17F0C80E436E000E446E2B
:10118000010E456E48EC17F0000E0001C66F040E0C
:10119000C76F000EC86FC60E436E000E446E010E80
:1011A000456E48EC17F0C70E436E000E446E010EFC
:1011B000456E48EC17F0C80E436E000E446E010EEB
:1011C000456E48EC17F0100E0001C66F140EC76F85
:1011D000100EC86FC60E436E000E446E010E456EB3
:1011E00048EC17F0C70E436E000E446E010E456EBC
:1011F00048EC17F0C80E436E000E446E010E456EAB
:1012000048EC17F02A0E466E8E0EE82EFED7462EBC
:10121000FCD7000E0001C66F040EC76F000EC86F2A
:10122000C60E436E000E446E010E456E48EC17F07C
:10123000C70E436E000E446E010E456E48EC17F06B
:10124000C80E436E000E446E010E456E48EC17F05A
:10125000600E0001C66F640EC76F600EC86FC60EC9
:10126000436E000E446E010E456E48EC17F0C70E3B
:10127000436E000E446E010E456E48EC17F0C80E2A
:10128000436E000E446E010E456E48EC17F0000EE2
:101290000001C66F040EC76F000EC86FC60E436E06
:1012A000000E446E010E456E48EC17F0C70E436EFB
:1012B000000E446E010E456E48EC17F0C80E436EEA
:1012C000000E446E010E456E48EC17F0200E000132
:1012D000C66F240EC76F200EC86FC60E436E000E79
:1012E000446E010E456E48EC17F0C70E436E000EBB
:1012F000446E010E456E48EC17F0C80E436E000EAA
:10130000446E010E456E48EC17F01200000E3D6E63
:10131000020E3C6EF7EC19F00001C66FC6C0C7F0B4
:10132000C86BC96BCA6BC9C0CAF0C8C0C9F0C7C016
:10133000C8F0C76B000E3D6E010E3C6EF7EC19F065
:101340000001CB6FCBC0CCF0CD6BCE6BCF6BCDC0E3
:10135000CFF0CCC0CEF0CD6BCC6B000E3D6E000E4E
:101360003C6EF7EC19F00001D06FD0C0D1F0D26B19
:10137000D36BD46BD1C0D4F0D36BD26BD16BCC51C7
:10138000D111D56FCD51D211D66FCE51D311D76FA8
:10139000CF51D411D86FC751D511D96FC851D611BB
:1013A000DA6FC951D711DB6FCA51D811DC6F000E4B
:1013B0003D6E030E3C6EF7EC19F00001DD6FDD5160
:1013C000D9110D6EDA510E6EDB510F6EDC51106EBD
:1013D000000E3D6E060E3C6EF7EC19F00001C66F74
:1013E000C6C0C7F0C86BC96BCA6BC9C0CAF0C8C059
:1013F000C9F0C7C0C8F0C76B000E3D6E050E3C6E4D
:10140000F7EC19F00001CB6FCBC0CCF0CD6BCE6BFD
:10141000CF6BCDC0CFF0CCC0CEF0CD6BCC6B000E7F
:101420003D6E040E3C6EF7EC19F00001D06FD0C099
:10143000D1F0D26BD36BD46BD1C0D4F0D36BD26B61
:10144000D16BCC51D111D56FCD51D211D66FCE51B8
:10145000D311D76FCF51D411D86FC751D511D96FD0
:10146000C851D611DA6FC951D711DB6FCA51D811E3
:10147000DC6F000E3D6E070E3C6EF7EC19F00001BC
:10148000DD6FDD51D911096EDA510A6EDB510B6E39
:10149000DC510C6E000E3D6E0A0E3C6EF7EC19F03E
:1014A0000001C66FC6C0C7F0C86BC96BCA6BC9C0A4
:1014B000CAF0C8C0C9F0C7C0C8F0C76B000E3D6E07
:1014C000090E3C6EF7EC19F00001CB6FCBC0CCF0ED
:1014D000CD6BCE6BCF6BCDC0CFF0CCC0CEF0CD6B93
:1014E000CC6B000E3D6E080E3C6EF7EC19F000015F
:1014F000D06FD0C0D1F0D26BD36BD46BD1C0D4F04D
:10150000D36BD26BD16BCC51D111D56FCD51D211E0
:10151000D66FCE51D311D76FCF51D411D86FC751D9
:10152000D511D96FC851D611DA6FC951D711DB6FF8
:10153000CA51D811DC6F000E3D6E0B0E3C6EF7ECFD
:1015400019F00001DD6FDD51D911056EDA51066E1B
:10155000DB51076EDC51086E000E3D6E0E0E3C6EC8
:10156000F7EC19F00001C66FC6C0C7F0C86BC96BB5
:10157000CA6BC9C0CAF0C8C0C9F0C7C0C8F0C76B41
:10158000000E3D6E0D0E3C6EF7EC19F00001CB6FB6
:10159000CBC0CCF0CD6BCE6BCF6BCDC0CFF0CCC081
:1015A000CEF0CD6BCC6B000E3D6E0C0E3C6EF7ECAE
:1015B00019F00001D06FD0C0D1F0D26BD36BD46BD7
:1015C000D1C0D4F0D36BD26BD16BCC51D111D56FCC
:1015D000CD51D211D66FCE51D311D76FCF51D41177
:1015E000D86FC751D511D96FC851D611DA6FC9510B
:1015F000D711DB6FCA51D811DC6F000E3D6E0F0E94
:101600003C6EF7EC19F00001DD6FDD51D911BC6FB4
:10161000DA51BD6FDB51BE6FDC51BF6F12001E503F
:10162000D8B415EF0BF017EF0BF019EF0BF047EFF5
:101630000CF09EEC1BF02D6E2E6A050ED8902D3608
:101640002E36E82E1EEF0BF09CEC1BF02F6E306A4E
:10165000070ED8902F363036E82E29EF0BF02D509C
:101660002F122E5030128AEC1BF0316E31502F1297
:10167000000E3012A00E2F183010D8A442EF0BF03D
:1016800044EF0BF048EF0BF0010E1E6E45EF0CF02F
:101690009EEC1BF02D6E2E6A050ED8902D362E3640
:1016A000E82E4DEF0BF09CEC1BF02F6E306A070E0E
:1016B000D8902F363036E82E58EF0BF02D502F12E1
:1016C0002E5030128AEC1BF0316E31502F12000E6A
:1016D0003012A20E2F183010D8A471EF0BF073EF58
:1016E0000BF077EF0BF0020E1E6E45EF0CF09EEC48
:1016F0001BF02D6E2E6A050ED8902D362E36E82E54
:101700007CEF0BF09CEC1BF02F6E306A070ED8902C
:101710002F363036E82E87EF0BF02D502F122E503B
:1017200030128AEC1BF0316E31502F12000E301245
:10173000420E2F183010D8A4A0EF0BF0A2EF0BF040
:10174000A4EF0BF073EF0BF09EEC1BF02D6E2E6AE6
:10175000050ED8902D362E36E82EA9EF0BF09CEC16
:101760001BF02F6E306A070ED8902F363036E82ED9
:10177000B4EF0BF02D502F122E5030128AEC1BF0CC
:10178000316E31502F12000E3012A10E2F18301072
:10179000D8A4CDEF0BF0CFEF0BF0D3EF0BF0030E8F
:1017A0001E6E45EF0CF09EEC1BF02D6E2E6A050EA2
:1017B000D8902D362E36E82ED8EF0BF09CEC1BF08F
:1017C0002F6E306A070ED8902F363036E82EE3EFB2
:1017D0000BF02D502F122E5030128AEC1BF0316E70
:1017E00031502F12000E3012410E2F183010D8A495
:1017F000FCEF0BF0FEEF0BF000EF0CF0CFEF0BF077
:101800009EEC1BF02D6E2E6A050ED8902D362E36CE
:10181000E82E05EF0CF09CEC1BF02F6E306A070EE3
:10182000D8902F363036E82E10EF0CF02D502F12B6
:101830002E5030128AEC1BF0316E31502F12000EF8
:101840003012400E2F183010D8A429EF0CF02BEFD7
:101850000CF043EF0CF01F04D8A431EF0CF033EF81
:101860000CF041EF0CF0CBEC1AF025C029F026C0AB
:101870002AF027C02BF028C02CF0C8EC16F045EF5A
:101880000CF045EF0CF0000E1E6E8DEC1BF01200FC
:10189000000E446E57EF0DF0CBC03CF0CCC03DF0D5
:1018A000CDC03EF0CEC03FF0100E406E270E416E10
:1018B000000E426E000E436E53EC12F03C50D0C04E
:1018C000D9FFD1C0DAFFDF6ED0C0D9FFD1C0DAFFB7
:1018D000DF500001D26FD2513C6E3D6A270E3F6E41
:1018E000100E3E6E18EC19F03CC0D3F03DC0D4F0A1
:1018F000000E0001D4BFFF0ED56FD66FD351CB5D64
:10190000CB6FD451CC59CC6FD551CD59CD6FD65169
:10191000CE59CE6F442A4450D025D96E000ED12125
:10192000DA6ECBC03CF0CCC03DF0CDC03EF0CEC0B6
:101930003FF0E80E406E030E416E000E426E000E48
:10194000436E53EC12F03C50DF6E44500001D02542
:10195000D96E000ED121DA6EDF50D26FD2513C6EBB
:101960003D6A030E3F6EE80E3E6E18EC19F03CC067
:10197000D3F03DC0D4F0000E0001D4BFFF0ED56FF0
:10198000D66FD351CB5DCB6FD451CC59CC6FD551E1
:10199000CD59CD6FD651CE59CE6F442A4450D02563
:1019A000D96E000ED121DA6ECBC03CF0CCC03DF038
:1019B000CDC03EF0CEC03FF0640E406E000E416ED2
:1019C000000E426E000E436E53EC12F03C50DF6E80
:1019D00044500001D025D96E000ED121DA6EDF50BF
:1019E000D26FD251640DF3CFD3F0F4CFD4F0000E08
:1019F000D4BFFF0ED56FD66FD351CB5DCB6FD45113
:101A0000CC59CC6FD551CD59CD6FD651CE59CE6F63
:101A1000442A4450D025D96E000ED121DA6ECBC0B5
:101A20003CF0CCC03DF0CDC03EF0CEC03FF00A0E41
:101A3000406E000E416E000E426E000E436E53EC7F
:101A400012F03C50DF6E44500001D025D96E000EDC
:101A5000D121DA6EDF50D26FD2510A0DF3CFD3F01D
:101A6000F4CFD4F0000ED4BFFF0ED56FD66FD35194
:101A7000CB5DCB6FD451CC59CC6FD551CD59CD6FF7
:101A8000D651CE59CE6F442A4450D025D96E000E7F
:101A9000D121DA6ECBC0DFFF442A4450D025D96E65
:101AA000000ED121DA6E000EDF6E79EF0DF000012D
:101AB000CF51D26FD36BD351000AD8B462EF0DF07F
:101AC00079EF0DF0D251010AD8B444EF0DF0030ABA
:101AD000D8B409EF0DF0010AD8B4CEEF0CF0070A24
:101AE000D8B48BEF0CF0010AD8B44CEF0CF079EFBE
:101AF0000DF01200000E0001CC6F5BEF0EF0000144
:101B0000CC514624C66F000E4720C76FC6C0F6FFF3
:101B1000C7C0F7FF000EF86E0E0EF76403D0080082
:101B2000F55005D0F6CFE9FFF7CFEAFFEF50F00B05
:101B300009090001C96FCC514624C66F000E472029
:101B4000C76FC6C0F6FFC7C0F7FF000EF86E0E0ED7
:101B5000F76403D00800F55005D0F6CFE9FFF7CFC2
:101B6000EAFFEF50F00B0D090001CA6FCC5146247B
:101B7000C66F000E4720C76FC6C0F6FFC7C0F7FF8D
:101B8000000EF86E0E0EF76403D00800F55005D075
:101B9000F6CFE9FFF7CFEAFFEF50F00B090900019C
:101BA000CB6FC90E436E000E446E010E456E48ECBD
:101BB00017F0CA0E436E000E446E010E456E48ECDF
:101BC00017F0CB0E436E000E446E010E456E48ECCE
:101BD00017F00001CC514624C66F000E4720C76F96
:101BE000C6C0F6FFC7C0F7FF000EF86E0E0EF76412
:101BF00003D00800F55005D0F6CFE9FFF7CFEAFF94
:101C0000EF500001C86FC839F00B0909C96FCC51FA
:101C10004624C66F000E4720C76FC6C0F6FFC7C078
:101C2000F7FF000EF86E0E0EF76403D00800F550B3
:101C300005D0F6CFE9FFF7CFEAFFEF500001C86FFC
:101C4000C839F00B0D09CA6FCC514624C66F000E7F
:101C50004720C76FC6C0F6FFC7C0F7FF000EF86E7B
:101C60000E0EF76403D00800F55005D0F6CFE9FF5B
:101C7000F7CFEAFFEF500001C86FC839F00B090930
:101C8000CB6FC90E436E000E446E010E456E48ECDC
:101C900017F0CA0E436E000E446E010E456E48ECFE
:101CA00017F0CB0E436E000E446E010E456E48ECED
:101CB00017F00001CC2BCC514624C66F000E4720F4
:101CC000C76FC6C0F6FFC7C0F7FF000EF86E0E0E56
:101CD000F76403D00800F55005D0F6CFE9FFF7CF41
:101CE000EAFFEF500009D8A478EF0EF07AEF0EF07B
:101CF0007FEF0DF01200000E0001B06F000EB16F0B
:101D0000000EB26F000EB36F000EAC6F000EAD6F21
:101D1000000EAE6F000EAF6F2350D8B492EF0EF0EE
:101D200094EF0EF032EF0FF0000E256E8384500E0C
:101D3000E82EFED7D8900001AC35AC6FAD35AD6F55
:101D4000AE35AE6FAF35AF6F8394500EE82EFED731
:101D50008DA2ADEF0EF0AFEF0EF0B6EF0EF0010E6C
:101D60000001AC27000EAD23AE23AF23252A170EAA
:101D70002564BDEF0EF0BFEF0EF096EF0EF0000EF3
:101D8000266E8384500EE82EFED78394500EE82EE4
:101D9000FED7262A2650D8B4D0EF0EF0D2EF0EF0A0
:101DA000C1EF0EF0ACC0B8F0ADC0B9F0AEC0BAF043
:101DB000AFC0BBF01D50040D600EF324D96E000EB1
:101DC000F420DA6EB8C0DEFFB9C0DEFFBAC0DEFFB5
:101DD000BBC0DEFF1D50040D600EF324D96E000E53
:101DE000F420DA6EDECFB8F0DECFB9F0DECFBAF095
:101DF000DECFBBF0010E276E2750040D600EF324DA
:101E0000D96E000EF420DA6EDE500001B827DE50E5
:101E1000B923DE50BA23DD50BB23D890BB33BA338D
:101E2000B933B833272A090E276419EF0FF01BEFD7
:101E30000FF0FCEF0EF0090E1D6021EF0FF023EF05
:101E40000FF026EF0FF01D2A28EF0FF0000E1D6E89
:101E5000B8C0B4F0B9C0B5F0BAC0B6F0BBC0B7F006
:101E6000000E236E12004CEC13F068EC1AF03CC02C
:101E700001F03DC002F03EC003F03FC004F056EC5C
:101E80001AF03CC0D9F03DC0DAF03EC0DBF03FC0F4
:101E9000DCF00001D951015CDA510258DB510358E2
:101EA000DC510458D8B057EF0FF059EF0FF06BEF3B
:101EB0000FF001C0D9F002C0DAF003C0DBF004C0BB
:101EC000DCF001C040F002C041F003C042F004C0A9
:101ED00043F09BEC16F00001D951015EDA51025A31
:101EE000DB51035ADC51045A01C040F002C041F0FA
:101EF00003C042F004C043F05FEC1AF03CC044F071
:101F00003DC045F03EC046F03FC047F0FAEC15F04A
:101F100040C001F041C002F042C003F043C004F0F1
:101F200001C03CF002C03DF003C03EF004C03FF0F1
:101F3000E80E406E030E416E000E426E000E436EC0
:101F400053EC12F03CC001F03DC002F03EC003F083
:101F50003FC004F001C03CF002C03DF003C03EF0C1
:101F600004C03FF0A9EC18F00009D8B4BAEF0FF0A4
:101F7000BCEF0FF0C0EF0FF090EC1BF0D4EF0FF0C0
:101F800001C03CF002C03DF003C03EF004C03FF091
:101F900092EC18F00009D8B4D0EF0FF0D2EF0FF0A8
:101FA000D4EF0FF092EC1BF0120035EF10F0000EA2
:101FB0001F6E1E04D8A4DFEF0FF0E1EF0FF0E5EF86
:101FC0000FF0010E1F6EE5EF0FF0000E1E6E4EEFCC
:101FD00010F01E04D8A4EFEF0FF0F1EF0FF0F5EFC3
:101FE0000FF0020E1F6EE5EF0FF0020E1E18D8A4C0
:101FF000FCEF0FF0FEEF0FF002EF10F014EC14F016
:10200000E5EF0FF0030E1E18D8A409EF10F00BEF48
:1020100010F0E5EF0FF093EC14F0E5EF0FF01E0475
:10202000D8A415EF10F017EF10F01BEF10F0000E12
:102030001F6EE5EF0FF0020E1E18D8A422EF10F06D
:1020400024EF10F028EF10F0D4EC13F0E5EF0FF0D0
:10205000030E1E18D8A42FEF10F031EF10F0E5EFAB
:102060000FF087EC15F0E5EF0FF01F50296E2A6A8C
:102070002A50000AD8B43FEF10F0D7EF0FF02950E4
:10208000000AD8B4D9EF0FF0010AD8B4E9EF0FF085
:10209000030AD8B40FEF10F0D7EF0FF012008CB096
:1020A00054EF10F058EF10F0256A252A59EF10F080
:1020B000256A8CB25EEF10F062EF10F0266A262AD5
:1020C00063EF10F0266AD890263425100001F66FD1
:1020D000F651F719D8B46FEF10F071EF10F07BEFF5
:1020E00010F0000E186E000E176EF6C0F7F0000E1E
:1020F000206EC8EF10F0185009E1640E175CD8A0EC
:1021000084EF10F086EF10F095EF10F0020E20181B
:10211000D8B48DEF10F08FEF10F095EF10F0F6C0FF
:10212000F4F0020E206EACEF10F0185009E1050E2D
:10213000175CD8A09EEF10F0A0EF10F0ACEF10F0FD
:102140002004D8B4A6EF10F0A8EF10F0ACEF10F018
:10215000F6C0F4F0010E206EF451F519D8B4B3EFC7
:1021600010F0B5EF10F0B9EF10F0F4C0F5F0010E7B
:10217000216EF40E175C010E1858D8A0C2EF10F0B3
:10218000C4EF10F0C6EF10F0C8EF10F0174A182A8D
:1021900012000001C86F46C0C6F0010E0001C6174C
:1021A000060EC76FD890C637C72FD2EF10F0C651B2
:1021B0008809C96F46C0C6F0010EC617060EC76F64
:1021C000D890C637C72FE0EF10F0C6518C09CA6F00
:1021D00046C0C6F0010EC617060EC76FD890C637A8
:1021E000C72FEEEF10F0C6518809CB6FC90E436EB2
:1021F000000E446E010E456E48EC17F0CA0E436E99
:10220000000E446E010E456E48EC17F0CB0E436E87
:10221000000E446E010E456E48EC17F00001C839FF
:10222000F00B0809C96FC839F00B0C09CA6FC8391F
:10223000F00B0809CB6FC90E436E000E446E010E01
:10224000456E48EC17F0CA0E436E000E446E010E48
:10225000456E48EC17F0CB0E436E000E446E010E37
:10226000456E48EC17F0120048A239EF11F09AEFD2
:1022700011F0C4EC19F0D8A040EF11F042EF11F0CA
:102280007DEF11F050EF11F0B9EC1AF099EF11F069
:10229000B0EC1AF099EF11F09EEC1AF099EF11F0F2
:1022A000A6C03CF0A7C03DF002D861EF11F00500D8
:1022B000FA6E00019A51FD6E9B51FE6EFF6AFA5054
:1022C00012003D6E3E6A3E50000AD8B46AEF11F02B
:1022D0004CEF11F03D50010AD8B44CEF11F0030A55
:1022E000D8B444EF11F0010AD8B448EF11F0070A4E
:1022F000D8B44CEF11F04CEF11F0000188978AC070
:10230000D9FF8BC0DAFF8A4B8B2BDF5023EC1BF0FD
:1023100000018C07D8A08D078C518D11D8A493EFA4
:1023200011F095EF11F098EF11F0060E99EF11F002
:10233000030E1200D1EC19F0D8A0A1EF11F0A3EF19
:1023400011F0DEEF11F0B1EF11F047EC1BF0FAEFF6
:1023500011F043EC1BF0FAEF11F03BEC1BF0FAEF3D
:1023600011F0A6C025F0A7C026F002D8C2EF11F0E8
:102370000500FA6E00019A51FD6E9B51FE6EFF6AD8
:10238000FA501200256E266A2650000AD8B4CBEF08
:1023900011F0ADEF11F02550010AD8B4ADEF11F0F6
:1023A000030AD8B4A5EF11F0010AD8B4A9EF11F0CF
:1023B000070AD8B4ADEF11F0ADEF11F00001889726
:1023C0008AC0D9FF8BC0DAFF8A4B8B2BDF504BECD6
:1023D0001BF000018C07D8A08D078C518D11D8A45B
:1023E000F4EF11F0F6EF11F0F9EF11F0060EFAEF3D
:1023F00011F0030E120048A200EF12F0F9EF12F0F4
:102400005DEC1BF08AC0D9FF8BC0DAFFDF6E0001E4
:102410008A4B8B2B8C07D8A08D078C518D11D8B48B
:1024200014EF12F016EF12F01BEF12F02BEC1BF072
:10243000050E52EF12F0888526EF12F083EC1AF0A9
:1024400052EF12F08CEC1AF052EF12F0A0C03CF0F8
:10245000A1C03DF002D836EF12F00500FA6E94519B
:10246000FD6E9551FE6EFF6AFA5012003C6E3D6A99
:102470003D50000AD8B43FEF12F022EF12F03C506A
:10248000010AD8B422EF12F0030AD8B41EEF12F0FA
:10249000010AD8B41EEF12F0070AD8B422EF12F0E6
:1024A00022EF12F01200000E0001C66F000EC76F7F
:1024B000000EC86F000EC96F40504110421043100B
:1024C000D8B465EF12F067EF12F09DEF12F0010E35
:1024D000CA6F71EF12F0D89040364136423643361B
:1024E000CA2B43AE76EF12F078EF12F06BEF12F0DA
:1024F000D890C637C737C837C93740503C5C4150C1
:102500003D5842503E5843503F58D8A08AEF12F0F1
:102510008CEF12F095EF12F040503C5E41503D5A66
:1025200042503E5A43503F5AC681D89043324232BD
:1025300041324032CA2F78EF12F0C6C03CF0C7C01B
:102540003DF0C8C03EF0C9C03FF012003E6E010E23
:102550003F6E000188B3AFEF12F0B1EF12F0F7EF6A
:1025600012F03EC089F08891888388970E0E926F92
:10257000010E916FF40E906F8885E60E946F350E04
:10258000956F000EA06F000EA16FE60E966F350ED0
:10259000976F000EA26F000EA36FE60E986F350EB8
:1025A000996F000EA46F000EA56FE60E9A6F350EA0
:1025B0009B6F000EA66F000EA76FD80E9C6F350E96
:1025C0009D6F000EA86F000EA96F62EC19F06FEC02
:1025D0001BF0080E3C6E370E3D6E0BEC1BF0200E10
:1025E0003C6E2A0E3D6E06EC1BF0000E3F6E3F5017
:1025F000120078EC1BF08AC0D9FF8BC0DAFFDF6EC7
:1026000000018A4B8B2B8C07D8A08D078C518D1124
:10261000D8B40DEF13F00FEF13F014EF13F053ECE9
:102620001BF0050E4BEF13F088851FEF13F02FEC16
:102630001BF04BEF13F033EC1BF04BEF13F0A0C08B
:1026400025F0A1C026F002D82FEF13F00500FA6E96
:102650009451FD6E9551FE6EFF6AFA501200256E80
:10266000266A2650000AD8B438EF13F01BEF13F097
:102670002550010AD8B41BEF13F0030AD8B417EFA2
:1026800013F0010AD8B417EF13F0070AD8B41BEF00
:1026900013F01BEF13F0120076EF13F001C045F0BA
:1026A00002C046F0000E476E20EC17F054EC14F018
:1026B00090EF13F07AEC1AF03CC045F03DC046F0C4
:1026C000020E476E20EC17F028EC18F090EF13F094
:1026D00071EC1AF03CC045F03DC046F0010E476E6B
:1026E00020EC17F00BEC18F090EF13F01F500001E6
:1026F000D76FD86BD851000AD8B481EF13F04EEFE2
:1027000013F0D751000AD8B44EEF13F0010AD8B431
:102710005AEF13F0030AD8B468EF13F04EEF13F03A
:10272000120048A296EF13F0D2EF14F00001888552
:10273000A7EF13F0A7EC1AF0D3EF13F05AEC1BF04D
:10274000030ED3EF13F09EEC1AF0D3EF13F0A0C0FA
:102750003CF0A1C03DF002D8B7EF13F00500FA6ECF
:102760009451FD6E9551FE6EFF6AFA5012003C6E58
:102770003D6A3D50000AD8B4C0EF13F0A3EF13F048
:102780003C50010AD8B4A3EF13F0030AD8B49AEF6F
:1027900013F0010AD8B49AEF13F0070AD8B49EEFE9
:1027A00013F0A3EF13F012000D50095C0E500A58FD
:1027B0000F500B5810500C58D8A0E1EF13F0E3EF76
:1027C00013F0EDEF13F0000E096E000E0A6E000E0E
:1027D0000B6E000E0C6EF3EF13F0010E0926000EC7
:1027E0000A220B220C22000E266E040E256E0CC04F
:1027F00027F0AEEC17F0000E266E050E256E0BC00E
:1028000027F0AEEC17F0000E266E060E256E0AC0FD
:1028100027F0AEEC17F0000E266E070E256E09C0ED
:1028200027F0AEEC17F0120010500DE19F0E0D5C7A
:10283000860E0E58010E0F58D8A021EF14F023EF8A
:1028400014F02DEF14F009C00DF00AC00EF00BC00B
:102850000FF00CC010F033EF14F0010E0D26000E37
:102860000E220F221022000E266E000E256E10C0C2
:1028700027F0AEEC17F0000E266E010E256E0FC08D
:1028800027F0AEEC17F0000E266E020E256E0EC07D
:1028900027F0AEEC17F0000E266E030E256E0DC06D
:1028A00027F0AEEC17F01200DEC0CDF0DFC0CEF0A6
:1028B000000E0001CF6F000E466E000EC9EC10F046
:1028C000650E466E0F0E476E7AEC0DF0CD0E466E1D
:1028D000000E476E7AEC0DF0710E466E0F0E476ECD
:1028E0007AEC0DF0E0C0CDF0E1C0CEF0E2C0CFF068
:1028F000000E0001D06FCD0E466E000E476E7AECD2
:102900000DF06C0E466E0F0E476E7AEC0DF0010E58
:10291000466E000EC9EC10F0540E466E0F0E476E58
:102920007AEC0DF012000D50095C0E500A580F5051
:102930000B5810500C58D8A0A0EF14F0A2EF14F0D0
:10294000ACEF14F09F0E0D6E860E0E6E010E0F6E24
:10295000000E106EB1EF14F00D06000E0E5A0F5A55
:10296000105A000E266E000E256E0CC027F0AEEC3D
:1029700017F0000E266E010E256E0BC027F0AEEC90
:1029800017F0000E266E020E256E0AC027F0AEEC80
:1029900017F0000E266E030E256E09C027F0AEEC70
:1029A00017F0120000018885E3EF14F03FEC1BF0F4
:1029B0000FEF15F075EC1BF0030E0FEF15F03BEC6D
:1029C0001BF00FEF15F0A0C025F0A1C026F002D833
:1029D000F3EF14F00500FA6E9451FD6E9551FE6E02
:1029E000FF6AFA501200256E266A2650000AD8B4F3
:1029F000FCEF14F0DFEF14F02550010AD8B4DFEF3C
:102A000014F0030AD8B4D6EF14F0010AD8B4D6EF04
:102A100014F0070AD8B4DAEF14F0DFEF14F0120064
:102A200048A215EF15F031EF16F06FEC1BF0000126
:102A300088A71DEF15F01FEF15F02BEF15F0C4EC74
:102A400019F0D8A026EF15F028EF15F02BEF15F0B0
:102A50000F0E0001926F00019251020D010EF3243E
:102A6000F66E0F0EF420F76EF86A000EF8220900D9
:102A7000F5CF3FF00900F5CF40F002D849EF15F04F
:102A80000500FA6E3F50FD6E4050FE6EFF6AFA5030
:102A900012000001926F1200000E826E000E836E13
:102AA000000E846E8768FA0E886E8968C30E0F0167
:102AB0001C6FF80E146FFC0E0C6F000E286F070EC3
:102AC000136F030E0B6F3C0E1B6F000E0A6F000E90
:102AD000126F000E1A6F0969116919690869106986
:102AE0001869080E256F0D930E830F93460E3C6EEA
:102AF000370E3D6E15EC1BF00E01BD89140E8B6F69
:102B0000110EF56F120EF66F130E8A6F1200095038
:102B10000A100B100C10D8A490EF15F092EF15F0DE
:102B20009CEF15F00DC009F00EC00AF00FC00BF0BD
:102B300010C00CF0A1EF15F00906000E0A5A0B5A4E
:102B40000C5A000E266E040E256E0CC027F0AEEC5B
:102B500017F0000E266E050E256E0BC027F0AEECAA
:102B600017F0000E266E060E256E0AC027F0AEEC9A
:102B700017F0000E266E070E256E09C027F0AEEC8A
:102B800017F0120048A2C7EF15F068EF16F0000129
:102B90008897020E936FD5EF15F0A7EC1AF0F9EFB6
:102BA00015F09EEC1AF0F9EF15F0A4C03CF0A5C0AA
:102BB0003DF002D8E5EF15F00500FA6E9851FD6E74
:102BC0009951FE6EFF6AFA5012003C6E3D6A3D500C
:102BD000000AD8B4EEEF15F0D1EF15F03C50020A20
:102BE000D8B4CDEF15F0010AD8B4CDEF15F0D1EF80
:102BF00015F01200000E0001C66F000EC76F000E28
:102C0000C86F000EC96F40A008EF16F00AEF16F06B
:102C100013EF16F044500001C6274550C723465015
:102C2000C8234750C923D8904436453646364736E0
:102C3000D89043324232413240324050411042102B
:102C40004310D8A426EF16F028EF16F003EF16F085
:102C5000C6C040F0C7C041F0C8C042F0C9C043F090
:102C6000120072EC1BF0000188A739EF16F03BEF61
:102C700016F047EF16F0D1EC19F0D8A042EF16F09D
:102C800044EF16F047EF16F00F0E0001926F0001AF
:102C90009251020D010EF324F66E0F0EF420F76E22
:102CA000F86A000EF8220900F5CF27F00900F5CFE9
:102CB00028F002D865EF16F00500FA6E2750FD6E79
:102CC0002850FE6EFF6AFA5012000001926F120047
:102CD00000018897020E936F76EF16F03FEC1BF021
:102CE0009AEF16F03BEC1BF09AEF16F0A4C025F01B
:102CF000A5C026F002D886EF16F00500FA6E9851AE
:102D0000FD6E9951FE6EFF6AFA501200256E266A1A
:102D10002650000AD8B48FEF16F072EF16F0255047
:102D2000020AD8B46EEF16F0010AD8B46EEF16F0AE
:102D300072EF16F01200640E4024056E000E412062
:102D4000066E000E4220076E000E4320086E000E35
:102D50003D6E080E3C6E08C03EF08DEC17F0000E84
:102D60003D6E090E3C6E07C03EF08DEC17F0000E74
:102D70003D6E0A0E3C6E06C03EF08DEC17F0000E64
:102D80003D6E0B0E3C6E05C03EF08DEC17F0120050
:102D9000640E2924056E000E2A20066E000E2B20DC
:102DA000076E000E2C20086E000E266E080E256E93
:102DB00008C027F0AEEC17F0000E266E090E256E47
:102DC00007C027F0AEEC17F0000E266E0A0E256E37
:102DD00006C027F0AEEC17F0000E266E0B0E256E27
:102DE00005C027F0AEEC17F01200416E010E426EE6
:102DF000000188B1FEEF16F000EF17F01EEF17F09C
:102E00008881000E426E4150D8B409EF17F00BEFE5
:102E100017F00FEF17F0010E926F11EF17F0020E7F
:102E2000926F69EC1BF090EC19F0D8B01AEF17F024
:102E30001CEF17F01EEF17F02BEC19F042501200A8
:102E400045C0CBF046C0CCF00001CD6BCE6B050E7B
:102E5000CF6F4750060DDE0EF324D06F000EF42026
:102E6000D16F48EC0CF04750060DDE0EF3243C6E9B
:102E7000000EF4203D6E4750060DDE0EF3243E6E2C
:102E8000000EF4203F6E050E406ECFEC17F01200DE
:102E9000270EA6EC12F00009D8A451EF17F053EF5B
:102EA00017F06BEF17F0010E43EC1AF043C03CF043
:102EB00044C03DF045C03EF03F6A3EEC19F01FECC7
:102EC0001BF004EC19F0E806D8B469EF17F06BEFCB
:102ED00017F061EF17F012009A0EF66E340EF76ECF
:102EE000000EF86E00EEDEF010EE12F00900F5CFE5
:102EF000EEFFE550E150FAE100EE60F0660EEE6A9A
:102F0000E806FDE100EE01F0240EEE6AE806FDE1C0
:102F10004890489200017AEF18F0000EF2BE010EC0
:102F20003F6E310E7B6E3D507A6E3CC079FF3EC0E5
:102F30007CFF7F8EF29E550E816EAA0E816E808878
:102F400080B8A5EF17F0A7EF17F0A0EF17F03FB08C
:102F500002D0F29E01D0F28E7F9E1200000EF2BED1
:102F6000010E286E310E7B6E26507A6E25C079FFD9
:102F700027C07CFF7F8EF29E550E816EAA0E816E59
:102F8000808880B8C6EF17F0C8EF17F0C1EF17F0D0
:102F900028B002D0F29E01D0F28E7F9E1200000E69
:102FA000416EE3EF17F041503E24D96E000E3F20F2
:102FB000DA6E41503C24E16E000E3D20E26EE75097
:102FC000300FDF6E412A4050415CD8A0EAEF17F085
:102FD000ECEF17F0D3EF17F01200000E1B6E000E8F
:102FE0001C6E000E126E000E116E000E146E000E9E
:102FF000136E030E0001F76F030EF66F000E216EC5
:10300000030EF56F030EF46F000E206E000E186EA7
:10301000000E176E1200000E466E000EC9EC10F086
:10302000320E466E0F0E476E7AEC0DF0010E466EB4
:10303000000EC9EC10F0E40E466E000E476E7AECFE
:103040000DF0210E466E0F0E476E7AEC0DF0120059
:10305000000E466E000EC9EC10F0430E466E0F0EC9
:10306000476E7AEC0DF0010E466E000EC9EC10F0C2
:10307000EA0E466E000E476E7AEC0DF0210E466E9B
:103080000F0E476E7AEC0DF012000E01C8B54BEF33
:1030900018F04DEF18F060EF18F00E01C8A553EFCF
:1030A00018F055EF18F057EF18F060EF18F0E40E35
:1030B00000D000D0E82EFCD700D000D04DEF18F0A3
:1030C00012000001F251F311D8B469EF18F06BEF60
:1030D00018F077EF18F002D877EF18F00500FA6EC5
:1030E000F251FD6EF351FE6EFF6AFA5012000F01AD
:1030F0000D93120023EC1AF0F28EF28C73EC19F09F
:10310000840E3C6E350E3D6E10EC1BF0340E3C6EA2
:10311000360E3D6E15EC1BF033EC0FF08CEF18F013
:1031200095EF00F03C50095C3D500A583E500B585A
:103130003F500C58D8A09FEF18F0A1EF18F0A5EF62
:1031400018F0010E406EA7EF18F0000E406E4050D0
:1031500012000D503C5C0E503D580F503E58105020
:103160003F58D8A0B6EF18F0B8EF18F0BCEF18F041
:10317000010E406EBEEF18F0000E406E405012007F
:10318000000E0001B86F000EB96F000EBA6F000E8E
:10319000BB6F8384E40E00D000D0E82EFCD700D0B3
:1031A00000D08394000E1D6E000E236E12000001ED
:1031B000F051F111D8B4DFEF18F0E1EF18F0EDEFB6
:1031C00018F002D8EDEF18F00500FA6EF051FD6E20
:1031D000F151FE6EFF6AFA50120012000E01C59BFB
:1031E000154A162A165009E10A0E155CD8A0FBEF05
:1031F00018F0FDEF18F003EF19F0D7EC18F0000EFF
:10320000166E000E156E1200010E3C6E000188B1A4
:103210000CEF19F00EEF19F016EF19F08893896989
:103220006FEC1BF06CEC1BF093C03CF03C501200B8
:103230003C503E02F3CF40F0F4CF41F03C503F020F
:10324000F35041263D503E02F350412640C03CF031
:1032500041C03DF0120035EF19F0000E3C6E000E3B
:103260003D6E45EC18F010EC15F0000188B13BEF15
:1032700019F03DEF19F02DEF19F01200000188A5AB
:1032800044EF19F046EF19F04FEF19F03CC08AF007
:103290003DC08BF03EC08CF03FC08DF08895120091
:1032A000680ED56EF90ED36E000ED26E0E01C59B60
:1032B000BD8B440E3C6E370E3D6E10EC1BF0800E45
:1032C000D46E12000E0191BB68EF19F06AEF19F08D
:1032D00072EF19F0000E906F280E916F000E926F32
:1032E0004F0E8E6F120094EC1BF0EDEC17F0C0EC5B
:1032F00018F039EC1AF0000E1F6E000E1E6E86ECF0
:1033000009F01200000E0E01DC6F000EDD6F000EE2
:10331000DE6F000EDF6F000EE06F000EE16F120037
:103320000E01C0B596EF19F09AEF19F03C6A3C2AED
:103330009BEF19F03C6A3C30120048A2A2EF19F052
:10334000D4EF1AF0000188878951892523EC1BF0FE
:10335000030E120048A2AFEF19F0DCEF1AF00001E3
:103360008887D880893523EC1BF0050E120048A20F
:10337000BCEF19F0E4EF1AF0A0EC1BF0000188910B
:10338000000E936F0E0E12000E0192BDCAEF19F0DF
:10339000CEEF19F03C6A3C2ACFEF19F03C6A3C3082
:1033A00012000E0192BDD7EF19F0DBEF19F0256A7C
:1033B000252ADCEF19F0256A253012002404D8A450
:1033C000E4EF19F0E6EF19F0EAEF19F0000E246EC1
:1033D0004FEC10F01200600E0E01D36F000ED56F8F
:1033E000000ED76F080ED96F000ED86F1200310E85
:1033F0007B6E3D507A6E3CC079FF808000F000F01B
:103400007C501200080E466E460E436E000E446E4F
:10341000010E456E48EC17F0120048A212EF1AF0A8
:10342000FAEF1AF00001889760EC1BF0040E12000E
:1034300048A21DEF1AF000EF1BF000018891000E6A
:10344000936F0E0E120096EC1BF082EC19F04CEC10
:1034500015F0EBEC19F050EC19F012000F010DA370
:1034600034EF1AF036EF1AF038EF1AF061EC18F07A
:103470001200BAEC07F002EC1AF0000E466E000ED5
:10348000C9EC10F012003C6E6CEC1BF03CC090F0EC
:103490000001916B57EC1BF01200303030302000EF
:1034A00030303030200030303030200005C03CF06B
:1034B00006C03DF007C03EF008C03FF01200BCC09F
:1034C0003CF0BDC03DF0BEC03EF0BFC03FF01200BA
:1034D000B4C03CF0B5C03DF0B6C03EF0B7C03FF060
:1034E000120009C03CF00AC03DF00BC03EF00CC019
:1034F0003FF012000DC03CF00EC03DF00FC03EF09A
:1035000010C03FF0120048A288EF1AF02FEF1BF016
:1035100027EC1BF0090E120048A291EF1AF033EFCE
:103520001BF027EC1BF00A0E120048A29AEF1AF0CB
:1035300037EF1BF02BEC1BF0050E120048A2A3EF97
:103540001AF03BEF1BF063EC1BF0000E120048A2D8
:10355000ACEF1AF03FEF1BF066EC1BF0010E12000F
:1035600048A2B5EF1AF043EF1BF066EC1BF0020E19
:10357000120048A2BEEF1AF047EF1BF066EC1BF0FA
:10358000010E1200010E246EDEEC19F00FEC0BF0B0
:10359000D5EC0FF01200B4C025F0B5C026F0B6C0CF
:1035A00027F0B7C028F012000001888789518925CB
:1035B0004BEC1BF0030E120000018887D880893580
:1035C0004BEC1BF0050E1200A1EC1BF000018891E2
:1035D000000E936F0E0E120048A2F1EF1AF098EF52
:1035E0001BF0050E120048A2F8EF1AF09AEF1BF03C
:1035F000010E1200000188977BEC1BF0040E1200F4
:1036000000018891000E936F0E0E12003CC0C2F0B4
:103610003DC0C3F012003CC0C4F03DC0C5F0120074
:103620003CC0F0F03DC0F1F012003CC0F2F03DC0F3
:10363000F3F01200010E236E7BEC0EF01200000E70
:10364000F5EC16F012003C6E3CC08DFE12000E012F
:10365000928B928912000E01929B928912004FEC7C
:103660001BF0090E12004FEC1BF00A0E120053EC77
:103670001BF0050E12007EEC1BF0000E120081EC18
:103680001BF0010E120081EC1BF0020E120081EC07
:103690001BF0010E1200256E25C08DFE12000E01DA
:1036A000928B928912000E01929B928912000E0158
:1036B000C08512000E01C88512000E018D51120046
:1036C0000E01928712000E01928512000E01928364
:1036D00012000E01928112000E01C09512000E011F
:1036E000C89512000E01C89512000E01C88512007F
:1036F0000E018D5112000E01928712000E0192856B
:1037000012000E019283120087EC1BF012000E01D2
:10371000C89712000001F4511200000E216E120031
:10372000838012008390120083901200F29A12009C
:10373000050E1200010E120021501200205012003E
:08374000120012001200120039
:020000040020DA
:10000000FFFFFFFFFFFFFFFFFFFFFFFFFFFFFFFF00
:10001000FFFFFFFFFFFFFFFFFFFFFFFFFFFFFFFFF0
:10002000FFFFFFFFFFFFFFFFFFFFFFFFFFFFFFFFE0
:10003000FFFFFFFFFFFFFFFFFFFFFFFFFFFFFFFFD0
:10004000FFFFFFFFFFFFFFFFFFFFFFFFFFFFFFFFC0
:10005000FFFFFFFFFFFFFFFFFFFFFFFFFFFFFFFFB0
:10006000FFFFFFFFFFFFFFFFFFFFFFFFFFFFFFFFA0
:10007000FFFFFFFFFFFFFFFFFFFFFFFFFFFFFFFF90
:10008000FFFFFFFFFFFFFFFFFFFFFFFFFFFFFFFF80
:10009000FFFFFFFFFFFFFFFFFFFFFFFFFFFFFFFF70
:1000A000FFFFFFFFFFFFFFFFFFFFFFFFFFFFFFFF60
:1000B000FFFFFFFFFFFFFFFFFFFFFFFFFFFFFFFF50
:1000C000FFFFFFFFFFFFFFFFFFFFFFFFFFFFFFFF40
:1000D000FFFFFFFFFFFFFFFFFFFFFFFFFFFFFFFF30
:1000E000FFFFFFFFFFFFFFFFFFFFFFFFFFFFFFFF20
:1000F000FFFFFFFFFFFFFFFFFFFFFFFFFFFFFFFF10
:020000040030CA
:0C0000008CFFFFFF9FFFFFFFFFFFFFFFD3
:020000040031C9
:10000000000003E8000003DE000246080000000ACA
:00000001FF
